:100000000C9444000C9459000C9459000C94590021
:100010000C9459000C9459000C9459000C945900FC
:100020000C9459000C9459000C9459000C945900EC
:100030000C9459000C9459000C9459000C945900DC
:100040000C9459000C9459000C9459000C945900CC
:100050000C9459000C9459000C9459000C945900BC
:100060000C9459000C9459003F0006005B004F00AF
:1000700066006D007D0007007F00670077007C0050
:1000800039005E007900710011241FBECFEFD8E067
:10009000DEBFCDBF11E0A0E0B1E0E6E1F2E002C0DA
:1000A00005900D92A430B107D9F70E9494000C94EA
:1000B00009010C940000FC016AE070E00E94E1007C
:1000C00026EF2603C001279F900D1124E80FF91F8A
:1000D0001BB885B115B885B1816085B9EE0FFF1FDA
:1000E000E859FF4FE491EBB92FEF80E792E0215000
:1000F00080409040E1F700C000001BB885B115B802
:1001000085B1826085B9660F771FFB01E859FF4F03
:10011000E491EBB92FEF80E792E0215080409040CE
:10012000E1F700C00000089583EF84B98FEF8AB92A
:100130008CE085B91BB81092C100C0E0D0E083B15B
:10014000847090E0959587959595879523B1287053
:1001500030E0359527953595279535952795009766
:1001600071F440910201509103014130510539F47D
:100170002196EFE3FCE93197F1F700C0000021156B
:10018000310571F440910001509101014130510558
:1001900039F42197EFE3FCE93197F1F700C0000053
:1001A000C436D10510F0C0E0D0E0309301012093B7
:1001B00000019093030180930201CE010E945B0035
:1001C000BECF97FB072E16F4009407D077FD09D019
:1001D0000E94F50007FC05D03EF4909581959F4F55
:1001E0000895709561957F4F0895AA1BBB1B51E13F
:1001F00007C0AA1FBB1FA617B70710F0A61BB70B97
:10020000881F991F5A95A9F780959095BC01CD013B
:060210000895F894FFCFF1
:0402160001000100E2
:00000001FF
